{
  "_format": "hh-sol-artifact-1",
  "contractName": "UltimateSoccer",
  "sourceName": "contracts/UltimateSoccer.sol",
  "abi": [
    {
      "inputs": [],
      "stateMutability": "nonpayable",
      "type": "constructor"
    },
    {
      "anonymous": false,
      "inputs": [
        {
          "indexed": true,
          "internalType": "address",
          "name": "owner",
          "type": "address"
        },
        {
          "indexed": true,
          "internalType": "address",
          "name": "approved",
          "type": "address"
        },
        {
          "indexed": true,
          "internalType": "uint256",
          "name": "tokenId",
          "type": "uint256"
        }
      ],
      "name": "Approval",
      "type": "event"
    },
    {
      "anonymous": false,
      "inputs": [
        {
          "indexed": true,
          "internalType": "address",
          "name": "owner",
          "type": "address"
        },
        {
          "indexed": true,
          "internalType": "address",
          "name": "operator",
          "type": "address"
        },
        {
          "indexed": false,
          "internalType": "bool",
          "name": "approved",
          "type": "bool"
        }
      ],
      "name": "ApprovalForAll",
      "type": "event"
    },
    {
      "anonymous": false,
      "inputs": [
        {
          "indexed": false,
          "internalType": "address",
          "name": "newContract",
          "type": "address"
        }
      ],
      "name": "ContractUpgrade",
      "type": "event"
    },
    {
      "anonymous": false,
      "inputs": [
        {
          "indexed": false,
          "internalType": "address",
          "name": "account",
          "type": "address"
        }
      ],
      "name": "Paused",
      "type": "event"
    },
    {
      "anonymous": false,
      "inputs": [
        {
          "indexed": true,
          "internalType": "address",
          "name": "from",
          "type": "address"
        },
        {
          "indexed": true,
          "internalType": "address",
          "name": "to",
          "type": "address"
        },
        {
          "indexed": true,
          "internalType": "uint256",
          "name": "tokenId",
          "type": "uint256"
        }
      ],
      "name": "Transfer",
      "type": "event"
    },
    {
      "anonymous": false,
      "inputs": [
        {
          "indexed": false,
          "internalType": "address",
          "name": "from",
          "type": "address"
        },
        {
          "indexed": false,
          "internalType": "address",
          "name": "to",
          "type": "address"
        },
        {
          "indexed": false,
          "internalType": "uint256",
          "name": "tokenId",
          "type": "uint256"
        }
      ],
      "name": "TransferEvent",
      "type": "event"
    },
    {
      "anonymous": false,
      "inputs": [
        {
          "indexed": false,
          "internalType": "address",
          "name": "account",
          "type": "address"
        }
      ],
      "name": "Unpaused",
      "type": "event"
    },
    {
      "inputs": [
        {
          "internalType": "address",
          "name": "to",
          "type": "address"
        },
        {
          "internalType": "uint256",
          "name": "tokenId",
          "type": "uint256"
        }
      ],
      "name": "approve",
      "outputs": [],
      "stateMutability": "nonpayable",
      "type": "function"
    },
    {
      "inputs": [
        {
          "internalType": "address",
          "name": "owner",
          "type": "address"
        }
      ],
      "name": "balanceOf",
      "outputs": [
        {
          "internalType": "uint256",
          "name": "",
          "type": "uint256"
        }
      ],
      "stateMutability": "view",
      "type": "function"
    },
    {
      "inputs": [
        {
          "internalType": "uint256",
          "name": "tokenId",
          "type": "uint256"
        }
      ],
      "name": "burn",
      "outputs": [],
      "stateMutability": "nonpayable",
      "type": "function"
    },
    {
      "inputs": [],
      "name": "ceoAddress",
      "outputs": [
        {
          "internalType": "address",
          "name": "",
          "type": "address"
        }
      ],
      "stateMutability": "view",
      "type": "function"
    },
    {
      "inputs": [],
      "name": "cfoAddress",
      "outputs": [
        {
          "internalType": "address payable",
          "name": "",
          "type": "address"
        }
      ],
      "stateMutability": "view",
      "type": "function"
    },
    {
      "inputs": [],
      "name": "cooAddress",
      "outputs": [
        {
          "internalType": "address",
          "name": "",
          "type": "address"
        }
      ],
      "stateMutability": "view",
      "type": "function"
    },
    {
      "inputs": [
        {
          "internalType": "uint256",
          "name": "tokenId",
          "type": "uint256"
        }
      ],
      "name": "getApproved",
      "outputs": [
        {
          "internalType": "address",
          "name": "",
          "type": "address"
        }
      ],
      "stateMutability": "view",
      "type": "function"
    },
    {
      "inputs": [
        {
          "internalType": "address",
          "name": "owner",
          "type": "address"
        },
        {
          "internalType": "address",
          "name": "operator",
          "type": "address"
        }
      ],
      "name": "isApprovedForAll",
      "outputs": [
        {
          "internalType": "bool",
          "name": "",
          "type": "bool"
        }
      ],
      "stateMutability": "view",
      "type": "function"
    },
    {
      "inputs": [
        {
          "internalType": "uint256",
          "name": "price",
          "type": "uint256"
        },
        {
          "internalType": "uint256",
          "name": "tokenId",
          "type": "uint256"
        }
      ],
      "name": "listToken",
      "outputs": [],
      "stateMutability": "nonpayable",
      "type": "function"
    },
    {
      "inputs": [],
      "name": "name",
      "outputs": [
        {
          "internalType": "string",
          "name": "",
          "type": "string"
        }
      ],
      "stateMutability": "view",
      "type": "function"
    },
    {
      "inputs": [],
      "name": "newContractAddress",
      "outputs": [
        {
          "internalType": "address",
          "name": "",
          "type": "address"
        }
      ],
      "stateMutability": "view",
      "type": "function"
    },
    {
      "inputs": [
        {
          "internalType": "uint256",
          "name": "tokenId",
          "type": "uint256"
        }
      ],
      "name": "ownerOf",
      "outputs": [
        {
          "internalType": "address",
          "name": "",
          "type": "address"
        }
      ],
      "stateMutability": "view",
      "type": "function"
    },
    {
      "inputs": [],
      "name": "pause",
      "outputs": [],
      "stateMutability": "nonpayable",
      "type": "function"
    },
    {
      "inputs": [],
      "name": "paused",
      "outputs": [
        {
          "internalType": "bool",
          "name": "",
          "type": "bool"
        }
      ],
      "stateMutability": "view",
      "type": "function"
    },
    {
      "inputs": [
        {
          "internalType": "uint256",
          "name": "",
          "type": "uint256"
        }
      ],
      "name": "playerIndexToOwner",
      "outputs": [
        {
          "internalType": "address",
          "name": "",
          "type": "address"
        }
      ],
      "stateMutability": "view",
      "type": "function"
    },
    {
      "inputs": [
        {
          "internalType": "address",
          "name": "to",
          "type": "address"
        },
        {
          "internalType": "uint256",
          "name": "tokenId",
          "type": "uint256"
        },
        {
          "internalType": "string",
          "name": "uri",
          "type": "string"
        },
        {
          "internalType": "uint64",
          "name": "_royaltyFees",
          "type": "uint64"
        },
        {
          "internalType": "address",
          "name": "_royaltyAddress",
          "type": "address"
        }
      ],
      "name": "royaltyMint",
      "outputs": [],
      "stateMutability": "nonpayable",
      "type": "function"
    },
    {
      "inputs": [
        {
          "internalType": "uint256",
          "name": "",
          "type": "uint256"
        }
      ],
      "name": "royaltyToken",
      "outputs": [
        {
          "internalType": "uint64",
          "name": "royaltyFees",
          "type": "uint64"
        },
        {
          "internalType": "address payable",
          "name": "royaltyAddress",
          "type": "address"
        }
      ],
      "stateMutability": "view",
      "type": "function"
    },
    {
      "inputs": [
        {
          "internalType": "address",
          "name": "to",
          "type": "address"
        },
        {
          "internalType": "uint256",
          "name": "tokenId",
          "type": "uint256"
        },
        {
          "internalType": "string",
          "name": "uri",
          "type": "string"
        }
      ],
      "name": "safeMint",
      "outputs": [],
      "stateMutability": "nonpayable",
      "type": "function"
    },
    {
      "inputs": [
        {
          "internalType": "address",
          "name": "from",
          "type": "address"
        },
        {
          "internalType": "address",
          "name": "to",
          "type": "address"
        },
        {
          "internalType": "uint256",
          "name": "tokenId",
          "type": "uint256"
        }
      ],
      "name": "safeTransferFrom",
      "outputs": [],
      "stateMutability": "nonpayable",
      "type": "function"
    },
    {
      "inputs": [
        {
          "internalType": "address",
          "name": "from",
          "type": "address"
        },
        {
          "internalType": "address",
          "name": "to",
          "type": "address"
        },
        {
          "internalType": "uint256",
          "name": "tokenId",
          "type": "uint256"
        },
        {
          "internalType": "bytes",
          "name": "data",
          "type": "bytes"
        }
      ],
      "name": "safeTransferFrom",
      "outputs": [],
      "stateMutability": "nonpayable",
      "type": "function"
    },
    {
      "inputs": [
        {
          "internalType": "address",
          "name": "operator",
          "type": "address"
        },
        {
          "internalType": "bool",
          "name": "approved",
          "type": "bool"
        }
      ],
      "name": "setApprovalForAll",
      "outputs": [],
      "stateMutability": "nonpayable",
      "type": "function"
    },
    {
      "inputs": [
        {
          "internalType": "address",
          "name": "_newCEO",
          "type": "address"
        }
      ],
      "name": "setCEO",
      "outputs": [],
      "stateMutability": "nonpayable",
      "type": "function"
    },
    {
      "inputs": [
        {
          "internalType": "address",
          "name": "_newCFO",
          "type": "address"
        }
      ],
      "name": "setCFO",
      "outputs": [],
      "stateMutability": "nonpayable",
      "type": "function"
    },
    {
      "inputs": [
        {
          "internalType": "address",
          "name": "_newCOO",
          "type": "address"
        }
      ],
      "name": "setCOO",
      "outputs": [],
      "stateMutability": "nonpayable",
      "type": "function"
    },
    {
      "inputs": [
        {
          "internalType": "address",
          "name": "_v2Address",
          "type": "address"
        }
      ],
      "name": "setNewAddress",
      "outputs": [],
      "stateMutability": "nonpayable",
      "type": "function"
    },
    {
      "inputs": [
        {
          "internalType": "bytes4",
          "name": "interfaceId",
          "type": "bytes4"
        }
      ],
      "name": "supportsInterface",
      "outputs": [
        {
          "internalType": "bool",
          "name": "",
          "type": "bool"
        }
      ],
      "stateMutability": "view",
      "type": "function"
    },
    {
      "inputs": [],
      "name": "symbol",
      "outputs": [
        {
          "internalType": "string",
          "name": "",
          "type": "string"
        }
      ],
      "stateMutability": "view",
      "type": "function"
    },
    {
      "inputs": [
        {
          "internalType": "uint256",
          "name": "",
          "type": "uint256"
        }
      ],
      "name": "tokenIdToPrice",
      "outputs": [
        {
          "internalType": "uint256",
          "name": "",
          "type": "uint256"
        }
      ],
      "stateMutability": "view",
      "type": "function"
    },
    {
      "inputs": [
        {
          "internalType": "uint256",
          "name": "tokenId",
          "type": "uint256"
        }
      ],
      "name": "tokenURI",
      "outputs": [
        {
          "internalType": "string",
          "name": "",
          "type": "string"
        }
      ],
      "stateMutability": "view",
      "type": "function"
    },
    {
      "inputs": [
        {
          "internalType": "address",
          "name": "from",
          "type": "address"
        },
        {
          "internalType": "address",
          "name": "to",
          "type": "address"
        },
        {
          "internalType": "uint256",
          "name": "tokenId",
          "type": "uint256"
        }
      ],
      "name": "transferFrom",
      "outputs": [],
      "stateMutability": "nonpayable",
      "type": "function"
    },
    {
      "inputs": [
        {
          "internalType": "address",
          "name": "from",
          "type": "address"
        },
        {
          "internalType": "address",
          "name": "to",
          "type": "address"
        },
        {
          "internalType": "uint256",
          "name": "tokenId",
          "type": "uint256"
        }
      ],
      "name": "transferNFT",
      "outputs": [],
      "stateMutability": "payable",
      "type": "function"
    },
    {
      "inputs": [
        {
          "internalType": "uint256",
          "name": "tokenId",
          "type": "uint256"
        }
      ],
      "name": "unlistToken",
      "outputs": [],
      "stateMutability": "nonpayable",
      "type": "function"
    },
    {
      "inputs": [],
      "name": "unpause",
      "outputs": [],
      "stateMutability": "nonpayable",
      "type": "function"
    },
    {
      "inputs": [],
      "name": "withdrawBalance",
      "outputs": [],
      "stateMutability": "nonpayable",
      "type": "function"
    }
  ],
  "bytecode": "0x60806040523480156200001157600080fd5b50604080518082018252600e81526d2ab63a34b6b0ba32a9b7b1b1b2b960911b602080830191825283518085019094526004845263554c545360e01b908401526000805460ff1916905581519192916200006e91600191620000af565b50805162000084906002906020840190620000af565b5050600a8054336001600160a01b03199182168117909255600c805490911690911790555062000192565b828054620000bd9062000155565b90600052602060002090601f016020900481019282620000e157600085556200012c565b82601f10620000fc57805160ff19168380011785556200012c565b828001600101855582156200012c579182015b828111156200012c5782518255916020019190600101906200010f565b506200013a9291506200013e565b5090565b5b808211156200013a57600081556001016200013f565b600181811c908216806200016a57607f821691505b602082108114156200018c57634e487b7160e01b600052602260045260246000fd5b50919050565b61232d80620001a26000396000f3fe6080604052600436106101f95760003560e01c806369e9cae11161010d578063a22cb465116100a0578063c87b56dd1161006f578063c87b56dd146105ed578063cd279c7c1461060d578063e985e9c51461062d578063f2d05f2b14610676578063f4812eb9146106ac57600080fd5b8063a22cb4651461056d578063ad3a358c1461058d578063b047fb50146105ad578063b88d4fde146105cd57600080fd5b80637341a2b4116100dc5780637341a2b41461050357806375c1631d146105235780638456cb591461054357806395d89b411461055857600080fd5b806369e9cae1146104825780636af04a571461049557806370a08231146104b557806371587988146104e357600080fd5b806327d7874c1161019057806342966c681161015f57806342966c68146103f55780634e0a3379146104155780635c975abb146104355780635fd8c7101461044d5780636352211e1461046257600080fd5b806327d7874c146103805780632ba73c15146103a05780633f4ba83a146103c057806342842e0e146103d557600080fd5b8063095ea7b3116101cc578063095ea7b3146102ad5780630a0f8168146102cf578063233bc3cb146102ef57806323b872dd1461036057600080fd5b806301ffc9a7146101fe5780630519ce791461023357806306fdde031461026b578063081812fc1461028d575b600080fd5b34801561020a57600080fd5b5061021e610219366004611feb565b6106d9565b60405190151581526020015b60405180910390f35b34801561023f57600080fd5b50600b54610253906001600160a01b031681565b6040516001600160a01b03909116815260200161022a565b34801561027757600080fd5b50610280610704565b60405161022a91906120f4565b34801561029957600080fd5b506102536102a8366004612023565b610796565b3480156102b957600080fd5b506102cd6102c8366004611eed565b6107bd565b005b3480156102db57600080fd5b50600a54610253906001600160a01b031681565b3480156102fb57600080fd5b5061033861030a366004612023565b600e6020526000908152604090205467ffffffffffffffff811690600160401b90046001600160a01b031682565b6040805167ffffffffffffffff90931683526001600160a01b0390911660208301520161022a565b34801561036c57600080fd5b506102cd61037b366004611dff565b6108d8565b34801561038c57600080fd5b506102cd61039b366004611db3565b61090a565b3480156103ac57600080fd5b506102cd6103bb366004611db3565b610956565b3480156103cc57600080fd5b506102cd6109a2565b3480156103e157600080fd5b506102cd6103f0366004611dff565b6109c3565b34801561040157600080fd5b506102cd610410366004612023565b6109de565b34801561042157600080fd5b506102cd610430366004611db3565b610a0f565b34801561044157600080fd5b5060005460ff1661021e565b34801561045957600080fd5b506102cd610a5b565b34801561046e57600080fd5b5061025361047d366004612023565b610ab0565b6102cd610490366004611dff565b610b10565b3480156104a157600080fd5b50600d54610253906001600160a01b031681565b3480156104c157600080fd5b506104d56104d0366004611db3565b610d45565b60405190815260200161022a565b3480156104ef57600080fd5b506102cd6104fe366004611db3565b610dcb565b34801561050f57600080fd5b506102cd61051e366004611f6b565b610e3e565b34801561052f57600080fd5b506102cd61053e36600461203b565b610eab565b34801561054f57600080fd5b506102cd610ee2565b34801561056457600080fd5b50610280610f01565b34801561057957600080fd5b506102cd610588366004611eb3565b610f10565b34801561059957600080fd5b506102cd6105a8366004612023565b610f1b565b3480156105b957600080fd5b50600c54610253906001600160a01b031681565b3480156105d957600080fd5b506102cd6105e8366004611e3a565b610f52565b3480156105f957600080fd5b50610280610608366004612023565b610f8a565b34801561061957600080fd5b506102cd610628366004611f16565b610f95565b34801561063957600080fd5b5061021e610648366004611dcd565b6001600160a01b03918216600090815260066020908152604080832093909416825291909152205460ff1690565b34801561068257600080fd5b50610253610691366004612023565b6009602052600090815260409020546001600160a01b031681565b3480156106b857600080fd5b506104d56106c7366004612023565b60086020526000908152604090205481565b600063152a902d60e11b6001600160e01b0319831614806106fe57506106fe82610fc0565b92915050565b60606001805461071390612235565b80601f016020809104026020016040519081016040528092919081815260200182805461073f90612235565b801561078c5780601f106107615761010080835404028352916020019161078c565b820191906000526020600020905b81548152906001019060200180831161076f57829003601f168201915b5050505050905090565b60006107a182611010565b506000908152600560205260409020546001600160a01b031690565b60006107c882610ab0565b9050806001600160a01b0316836001600160a01b0316141561083b5760405162461bcd60e51b815260206004820152602160248201527f4552433732313a20617070726f76616c20746f2063757272656e74206f776e656044820152603960f91b60648201526084015b60405180910390fd5b336001600160a01b038216148061085757506108578133610648565b6108c95760405162461bcd60e51b815260206004820152603e60248201527f4552433732313a20617070726f76652063616c6c6572206973206e6f7420746f60448201527f6b656e206f776e6572206e6f7220617070726f76656420666f7220616c6c00006064820152608401610832565b6108d3838361106f565b505050565b6108e3335b826110dd565b6108ff5760405162461bcd60e51b815260040161083290612159565b6108d383838361115c565b600a546001600160a01b0316331461092157600080fd5b6001600160a01b03811661093457600080fd5b600a80546001600160a01b0319166001600160a01b0392909216919091179055565b600a546001600160a01b0316331461096d57600080fd5b6001600160a01b03811661098057600080fd5b600c80546001600160a01b0319166001600160a01b0392909216919091179055565b600a546001600160a01b031633146109b957600080fd5b6109c1611303565b565b6108d383838360405180602001604052806000815250610f52565b6109e7336108dd565b610a035760405162461bcd60e51b815260040161083290612159565b610a0c81611355565b50565b600a546001600160a01b03163314610a2657600080fd5b6001600160a01b038116610a3957600080fd5b600b80546001600160a01b0319166001600160a01b0392909216919091179055565b600b546001600160a01b03163314610a7257600080fd5b600b5460405147916001600160a01b03169082156108fc029083906000818181858888f19350505050158015610aac573d6000803e3d6000fd5b5050565b6000818152600360205260408120546001600160a01b0316806106fe5760405162461bcd60e51b8152602060048201526018602482015277115490cdcc8c4e881a5b9d985b1a59081d1bdad95b88125160421b6044820152606401610832565b600081815260086020908152604080832054600e909252822054909190610b419067ffffffffffffffff16836121d3565b905060006064610b528460056121d3565b610b5c91906121bf565b9050600081610b6b84866121f2565b610b7591906121f2565b905060008411610bc75760405162461bcd60e51b815260206004820152601a60248201527f5468697320746f6b656e206973206e6f7420666f722073616c650000000000006044820152606401610832565b610bd085610ab0565b6001600160a01b0316336001600160a01b031614610bed57600080fd5b600085815260096020908152604080832080546001600160a01b0319166001600160a01b038b8116919091179091556008909252808320839055600b5490519116916108fc851502918591818181858888f19350505050158015610c55573d6000803e3d6000fd5b506000858152600e6020526040808220549051600160401b9091046001600160a01b0316916108fc861502918691818181858888f19350505050158015610ca0573d6000803e3d6000fd5b506000858152600960205260408082205490516001600160a01b039091169183156108fc02918491818181858888f19350505050158015610ce5573d6000803e3d6000fd5b50610cf187878761115c565b604080516001600160a01b03808a168252881660208201529081018690527feaf1c4b3ce0f4f62a2bae7eb3e68225c75f7e6ff4422073b7437b9a78d25f1709060600160405180910390a150505050505050565b60006001600160a01b038216610daf5760405162461bcd60e51b815260206004820152602960248201527f4552433732313a2061646472657373207a65726f206973206e6f7420612076616044820152683634b21037bbb732b960b91b6064820152608401610832565b506001600160a01b031660009081526004602052604090205490565b600a546001600160a01b03163314610de257600080fd5b610dea61135e565b600d80546001600160a01b0319166001600160a01b0383169081179091556040519081527f450db8da6efbe9c22f2347f7c2021231df1fc58d3ae9a2fa75d39fa4461993059060200160405180910390a150565b600c546001600160a01b03163314610e5557600080fd5b610e5f85856113a7565b610e6984846113c1565b6000848152600e60205260409020805467ffffffffffffffff84166001600160e01b031990911617600160401b6001600160a01b038416021790555050505050565b610eb481610ab0565b6001600160a01b0316336001600160a01b031614610ed157600080fd5b600090815260086020526040902055565b600a546001600160a01b03163314610ef957600080fd5b6109c161145b565b60606002805461071390612235565b610aac338383611498565b610f2481610ab0565b6001600160a01b0316336001600160a01b031614610f4157600080fd5b600090815260086020526040812055565b610f5c33836110dd565b610f785760405162461bcd60e51b815260040161083290612159565b610f8484848484611567565b50505050565b60606106fe8261159a565b600c546001600160a01b03163314610fac57600080fd5b610fb683836113a7565b6108d382826113c1565b60006001600160e01b031982166380ac58cd60e01b1480610ff157506001600160e01b03198216635b5e139f60e01b145b806106fe57506301ffc9a760e01b6001600160e01b03198316146106fe565b6000818152600360205260409020546001600160a01b0316610a0c5760405162461bcd60e51b8152602060048201526018602482015277115490cdcc8c4e881a5b9d985b1a59081d1bdad95b88125160421b6044820152606401610832565b600081815260056020526040902080546001600160a01b0319166001600160a01b03841690811790915581906110a482610ab0565b6001600160a01b03167f8c5be1e5ebec7d5bd14f71427d1e84f3dd0314c0f7b2291e5b200ac8c7c3b92560405160405180910390a45050565b6000806110e983610ab0565b9050806001600160a01b0316846001600160a01b0316148061113057506001600160a01b0380821660009081526006602090815260408083209388168352929052205460ff165b806111545750836001600160a01b031661114984610796565b6001600160a01b0316145b949350505050565b826001600160a01b031661116f82610ab0565b6001600160a01b0316146111d35760405162461bcd60e51b815260206004820152602560248201527f4552433732313a207472616e736665722066726f6d20696e636f72726563742060448201526437bbb732b960d91b6064820152608401610832565b6001600160a01b0382166112355760405162461bcd60e51b8152602060048201526024808201527f4552433732313a207472616e7366657220746f20746865207a65726f206164646044820152637265737360e01b6064820152608401610832565b6112408383836116bd565b61124b60008261106f565b6001600160a01b03831660009081526004602052604081208054600192906112749084906121f2565b90915550506001600160a01b03821660009081526004602052604081208054600192906112a29084906121a7565b909155505060008181526003602052604080822080546001600160a01b0319166001600160a01b0386811691821790925591518493918716917fddf252ad1be2c89b69c2b068fc378daa952ba7f163c4a11628f55a4df523b3ef91a4505050565b61130b61135e565b6000805460ff191690557f5db9ee0a495bf2e6ff9c91a7834c1ba4fdd244a5e8aa4e537bd38aeae4b073aa335b6040516001600160a01b03909116815260200160405180910390a1565b610a0c816116d0565b60005460ff166109c15760405162461bcd60e51b815260206004820152601460248201527314185d5cd8589b194e881b9bdd081c185d5cd95960621b6044820152606401610832565b610aac828260405180602001604052806000815250611710565b6000828152600360205260409020546001600160a01b031661143c5760405162461bcd60e51b815260206004820152602e60248201527f45524337323155524953746f726167653a2055524920736574206f66206e6f6e60448201526d32bc34b9ba32b73a103a37b5b2b760911b6064820152608401610832565b600082815260076020908152604090912082516108d392840190611c33565b611463611743565b6000805460ff191660011790557f62e78cea01bee320cd4e420270b5ea74000d11b0c9f74754ebdbfc544b05a2586113383390565b816001600160a01b0316836001600160a01b031614156114fa5760405162461bcd60e51b815260206004820152601960248201527f4552433732313a20617070726f766520746f2063616c6c6572000000000000006044820152606401610832565b6001600160a01b03838116600081815260066020908152604080832094871680845294825291829020805460ff191686151590811790915591519182527f17307eab39ab6107e8899845ad3d59bd9653f200f220920489ca2b5937696c31910160405180910390a3505050565b61157284848461115c565b61157e84848484611789565b610f845760405162461bcd60e51b815260040161083290612107565b60606115a582611010565b600082815260076020526040812080546115be90612235565b80601f01602080910402602001604051908101604052809291908181526020018280546115ea90612235565b80156116375780601f1061160c57610100808354040283529160200191611637565b820191906000526020600020905b81548152906001019060200180831161161a57829003601f168201915b50505050509050600061166f604080518082019091526012815271697066733a2f2f7b49504653204349447d2f60701b602082015290565b9050805160001415611682575092915050565b8151156116b457808260405160200161169c929190612088565b60405160208183030381529060405292505050919050565b61115484611896565b6116c5611743565b6108d38383836116bd565b6116d981611924565b600081815260076020526040902080546116f290612235565b159050610a0c576000818152600760205260408120610a0c91611cb7565b61171a83836119cb565b6117276000848484611789565b6108d35760405162461bcd60e51b815260040161083290612107565b60005460ff16156109c15760405162461bcd60e51b815260206004820152601060248201526f14185d5cd8589b194e881c185d5cd95960821b6044820152606401610832565b60006001600160a01b0384163b1561188b57604051630a85bd0160e11b81526001600160a01b0385169063150b7a02906117cd9033908990889088906004016120b7565b602060405180830381600087803b1580156117e757600080fd5b505af1925050508015611817575060408051601f3d908101601f1916820190925261181491810190612007565b60015b611871573d808015611845576040519150601f19603f3d011682016040523d82523d6000602084013e61184a565b606091505b5080516118695760405162461bcd60e51b815260040161083290612107565b805181602001fd5b6001600160e01b031916630a85bd0160e11b149050611154565b506001949350505050565b60606118a182611010565b60006118d2604080518082019091526012815271697066733a2f2f7b49504653204349447d2f60701b602082015290565b905060008151116118f2576040518060200160405280600081525061191d565b806118fc84611b19565b60405160200161190d929190612088565b6040516020818303038152906040525b9392505050565b600061192f82610ab0565b905061193d816000846116bd565b61194860008361106f565b6001600160a01b03811660009081526004602052604081208054600192906119719084906121f2565b909155505060008281526003602052604080822080546001600160a01b0319169055518391906001600160a01b038416907fddf252ad1be2c89b69c2b068fc378daa952ba7f163c4a11628f55a4df523b3ef908390a45050565b6001600160a01b038216611a215760405162461bcd60e51b815260206004820181905260248201527f4552433732313a206d696e7420746f20746865207a65726f20616464726573736044820152606401610832565b6000818152600360205260409020546001600160a01b031615611a865760405162461bcd60e51b815260206004820152601c60248201527f4552433732313a20746f6b656e20616c7265616479206d696e746564000000006044820152606401610832565b611a92600083836116bd565b6001600160a01b0382166000908152600460205260408120805460019290611abb9084906121a7565b909155505060008181526003602052604080822080546001600160a01b0319166001600160a01b03861690811790915590518392907fddf252ad1be2c89b69c2b068fc378daa952ba7f163c4a11628f55a4df523b3ef908290a45050565b606081611b3d5750506040805180820190915260018152600360fc1b602082015290565b8160005b8115611b675780611b5181612270565b9150611b609050600a836121bf565b9150611b41565b60008167ffffffffffffffff811115611b9057634e487b7160e01b600052604160045260246000fd5b6040519080825280601f01601f191660200182016040528015611bba576020820181803683370190505b5090505b841561115457611bcf6001836121f2565b9150611bdc600a8661228b565b611be79060306121a7565b60f81b818381518110611c0a57634e487b7160e01b600052603260045260246000fd5b60200101906001600160f81b031916908160001a905350611c2c600a866121bf565b9450611bbe565b828054611c3f90612235565b90600052602060002090601f016020900481019282611c615760008555611ca7565b82601f10611c7a57805160ff1916838001178555611ca7565b82800160010185558215611ca7579182015b82811115611ca7578251825591602001919060010190611c8c565b50611cb3929150611ced565b5090565b508054611cc390612235565b6000825580601f10611cd3575050565b601f016020900490600052602060002090810190610a0c91905b5b80821115611cb35760008155600101611cee565b600067ffffffffffffffff80841115611d1d57611d1d6122cb565b604051601f8501601f19908116603f01168101908282118183101715611d4557611d456122cb565b81604052809350858152868686011115611d5e57600080fd5b858560208301376000602087830101525050509392505050565b80356001600160a01b0381168114611d8f57600080fd5b919050565b600082601f830112611da4578081fd5b61191d83833560208501611d02565b600060208284031215611dc4578081fd5b61191d82611d78565b60008060408385031215611ddf578081fd5b611de883611d78565b9150611df660208401611d78565b90509250929050565b600080600060608486031215611e13578081fd5b611e1c84611d78565b9250611e2a60208501611d78565b9150604084013590509250925092565b60008060008060808587031215611e4f578081fd5b611e5885611d78565b9350611e6660208601611d78565b925060408501359150606085013567ffffffffffffffff811115611e88578182fd5b8501601f81018713611e98578182fd5b611ea787823560208401611d02565b91505092959194509250565b60008060408385031215611ec5578182fd5b611ece83611d78565b915060208301358015158114611ee2578182fd5b809150509250929050565b60008060408385031215611eff578182fd5b611f0883611d78565b946020939093013593505050565b600080600060608486031215611f2a578283fd5b611f3384611d78565b925060208401359150604084013567ffffffffffffffff811115611f55578182fd5b611f6186828701611d94565b9150509250925092565b600080600080600060a08688031215611f82578081fd5b611f8b86611d78565b945060208601359350604086013567ffffffffffffffff80821115611fae578283fd5b611fba89838a01611d94565b9450606088013591508082168214611fd0578283fd5b509150611fdf60808701611d78565b90509295509295909350565b600060208284031215611ffc578081fd5b813561191d816122e1565b600060208284031215612018578081fd5b815161191d816122e1565b600060208284031215612034578081fd5b5035919050565b6000806040838503121561204d578182fd5b50508035926020909101359150565b60008151808452612074816020860160208601612209565b601f01601f19169290920160200192915050565b6000835161209a818460208801612209565b8351908301906120ae818360208801612209565b01949350505050565b6001600160a01b03858116825284166020820152604081018390526080606082018190526000906120ea9083018461205c565b9695505050505050565b60208152600061191d602083018461205c565b60208082526032908201527f4552433732313a207472616e7366657220746f206e6f6e20455243373231526560408201527131b2b4bb32b91034b6b83632b6b2b73a32b960711b606082015260800190565b6020808252602e908201527f4552433732313a2063616c6c6572206973206e6f7420746f6b656e206f776e6560408201526d1c881b9bdc88185c1c1c9bdd995960921b606082015260800190565b600082198211156121ba576121ba61229f565b500190565b6000826121ce576121ce6122b5565b500490565b60008160001904831182151516156121ed576121ed61229f565b500290565b6000828210156122045761220461229f565b500390565b60005b8381101561222457818101518382015260200161220c565b83811115610f845750506000910152565b600181811c9082168061224957607f821691505b6020821081141561226a57634e487b7160e01b600052602260045260246000fd5b50919050565b60006000198214156122845761228461229f565b5060010190565b60008261229a5761229a6122b5565b500690565b634e487b7160e01b600052601160045260246000fd5b634e487b7160e01b600052601260045260246000fd5b634e487b7160e01b600052604160045260246000fd5b6001600160e01b031981168114610a0c57600080fdfea2646970667358221220447c764cdff29f6d22d303fb1e5901a9550d574c2a3b47784304f857495969d864736f6c63430008040033",
  "linkReferences": {},
  "deployedLinkReferences": {}
}